:060000000A128A11E92F2B
:10000A00F30008307302031C0B280C280F28F00198
:10001A00F1012D287308F200F20DF20DF20D831290
:10002A0003131F087206C73972069F00A630F20032
:10003A00F20B1D280000831203131F151F1926280F
:10004A00272823281E08F100831603131E08F00030
:10005A0008000310720D730DF4007408FA007A0890
:10006A00031D3828392842280030F3000030F200F6
:10007A000030F1000030F000A7287008F400710881
:10008A00F5007208F6007308F7001F300310F70C2A
:10009A00F60CF50CF40CFF3E031D4B287408F8000F
:1000AA007808F900F217FF30F005FF30F105FF304C
:1000BA00F2050030F3059630FA02FA1F6528662821
:1000CA0080287A08803A973E03186C286D286E2893
:1000DA00392801300310F30CF20CF10CF00CFF3E3E
:1000EA00031D6F280130F4007408FA07031D7E28E7
:1000FA007F286E28972820307A02031C85288628B4
:10010A00922839280130F4000310F00DF10DF20D98
:10011A00F30DF40B89280130FA027A08031D962898
:10012A0097288728790803199B289C28A728F0096B
:10013A00F109F209F309F00A0319F10A0319F20A9B
:10014A000319F30A080000300A128A1105200A125C
:10015A008A11710883120313DE007008DD00A530CE
:10016A0083120313D800D80BB828BB2800300A1210
:10017A008A1105200A128A11700883120313DD07F7
:10018A000318DE0A7108DE07A53083120313D800AC
:10019A00D80BCD28D02800300A128A1105200A125D
:1001AA008A11700883120313DD070318DE0A710827
:1001BA00DE07A53083120313D800D80BE228E528FE
:1001CA000330F0000030F100831203135E08F300DD
:1001DA005D08F2000A128A1522250A128A1171088C
:1001EA0083120313DE007008DD004330BD00FA30CD
:1001FA00BC000030BB000030BA004430A3007F309E
:10020A00A200C030A1000030A0005D08F0005E0826
:10021A00F100F201F30100300A128A11F1210A12E7
:10022A008A11730883120313A7007208A6007108C3
:10023A00A5007008A4000A128A11AB220A128A11B8
:10024A00831203132308C1002208C0002108BF003B
:10025A002008BE000A128A1188240A128A118312FF
:10026A0003133D08DC003C08DB003B08DA003A08CF
:10027A00D9005C08D7005B08D6005A08D50059088F
:10028A00D4000800263084000530FF008313800163
:10029A00840AFF0B4B29043083120313AD0000308C
:1002AA00AE00AB01AC01A11F5B295C299C29F501B9
:1002BA00F50A2D300A128A1566250A128A11831246
:1002CA000313A009A109A00A0319A10A9C290A304B
:1002DA00F0000030F1002108F3002008F2000A12B1
:1002EA008A150A260A128A11700883120313A300B8
:1002FA002D08263E84002308831380000A30F0006C
:10030A000030F1002108F3002008F2000A128A15D1
:10031A002C270A128A11710883120313A10070088C
:10032A00A000FF30AD070318AE0AFF30AE07200861
:10033A002104031DA129A2296C29220A031DA62929
:10034A00A729B829AE290130AB070318AC0A003037
:10035A00AC072B08263E8400831300080319B6292C
:10036A00B729A829C6292208A300A401A31BA4030C
:10037A000530A50023082502AB0024090318013E15
:10038A00AC002C08AE002B08AD002E08803AFF0006
:10039A0080307F02031DD32905302D02031CD62984
:1003AA00D729D829F029F501F50A831203132D0854
:1003BA00263E840083130008303E0A128A156625F9
:1003CA000A128A11013083120313AD070318AE0A09
:1003DA000030AE07CA290800F80078080319F62980
:1003EA00F7290B2AF31FFA29FB290B2A7009FA00AD
:1003FA007109FB007209FC007309FD00FA0A03196E
:10040A00FB0A0319FC0A0319FD0A132A7308FD00E3
:10041A007208FC007108FB007008FA007308720485
:10042A0071047004031D1A2A1B2A242A0030F300BF
:10043A000030F2000030F1000030F000AA2A9630B5
:10044A00F4007408F900362A0130F4007408F90738
:10045A0001300310FD0CFC0CFB0CFA0CFF3E031DD3
:10046A002E2AFE307D05031D3B2A3C2A292A582ABA
:10047A000130F4007408F9070130FA070030031854
:10048A000130FB07003003180130FC070030031865
:10049A000130FD0701300310FD0CFC0CFB0CFA0CBB
:1004AA00FF3E031D502AFF307D05031D5D2A5E2A8B
:1004BA003D2A6A2A0130F9020130F4000310FA0DCC
:1004CA00FB0DFC0DFD0DF40B632AFC1B6D2A6E2A35
:1004DA00742A023079020318732A742A5F2A791857
:1004EA00772A782A802AFF30FA05FF30FB057F3009
:1004FA00FC05FF30FD050310F90C7908F400F5013D
:10050A00F601F70118300310F40DF50DF60DF70D8D
:10051A00FF3E031D882A7408FA047508FB0476084E
:10052A00FC047708FD04780803199C2A9D2AA22A4C
:10053A00F31FA02AA12AA22AFD177D08F3007C082E
:10054A00F2007B08F1007A08F00008008312031316
:10055A0027088039A8002808B1002708A80028071A
:10056A00A9002908B800A61FBB2ABC2ABD2A38142C
:10057A0038080319C12AC22AD22A380A031DC62AF0
:10058A00C72ACF2A0030A7000030A6000030A500F5
:10059A000030A400A617A701DA2A0030A70000300D
:1005AA00A6000030A5000030A40023088039A80066
:1005BA002808B1062308A8002807A9002908B900B5
:1005CA00A21FE82AE92AEA2A391439080319EE2A65
:1005DA00EF2AFF2A390A031DF32AF42AFC2A0030DB
:1005EA00A3000030A2000030A1000030A000A21732
:1005FA00A301072B0030A3000030A2000030A100A5
:10060A000030A0002308220421042004031D0E2B1D
:10061A000F2B282B0030A7000030A6000030A500C1
:10062A000030A4008030A6047F30A7043108A80057
:10063A002808A7042708A3002608A2002508A10065
:10064A002408A000872C3808031D2C2B2D2B362BB1
:10065A000030A3000030A2000030A1000030A0004A
:10066A00872C3808A800A9012908AB0039082802F4
:10067A00AA00031CAB032A087F3EB2002B0803180A
:10068A00013E003EB3002708B0002608AF00250847
:10069A00AE002408AD000030A7000030A6000030EC
:1006AA00A5000030A4000030B7000030B6000030CA
:1006BA00B5000030B400B901AC2B39080319662B18
:1006CA00672B872B0130A8000310AD0DAE0DAF0DBF
:1006DA00B00DA80B692B0130A8000310A40DA50DBD
:1006EA00A60DA70DA80B722BB71F7C2B7D2B7E2B7B
:1006FA0024140130A8000310B40DB50DB60DB70DC2
:10070A00A80B802B23083002031D952B22082F02E9
:10071A00031D952B21082E02031D952B20082D025F
:10072A00031C982B992BA82B37172008AD022108F8
:10073A00031C210FAE022208031C220FAF0223085A
:10074A00031C230FB0020130A8002808B9071A3089
:10075A003902031CB12BB22B622B30082F042E0452
:10076A002D040319B92BBA2BD92B3414D92B0130E8
:10077A00A8000310A40DA50DA60DA70DA80BBE2B4E
:10078A00B71FC82BC92BCA2B24140130A800031089
:10079A00B40DB50DB60DB70DA80BCC2BFF30B207B3
:1007AA000318B30AFF30B307A61FDC2BDD2BBC2BC3
:1007BA00B901B71FE12BE22BFE2BFF303405A8004D
:1007CA00FF303505A900FF303605AA007F3037050E
:1007DA00AB002B082A04290428040319F52BF62B4D
:1007EA00F92BB901B90AFE2B241CFC2BFD2BFE2B7D
:1007FA00F62B39080319022C032C342C0130A407D8
:10080A00003003180130A507003003180130A6078D
:10081A00003003180130A707271C142C152C342C80
:10082A002408A8002508A9002608AA002708AB0062
:10083A000130AC002B0DAB0CAA0CA90CA80CAC0B0C
:10084A001F2C2B08A7002A08A6002908A50028089B
:10085A00A4000130B2070318B30A0030B307330803
:10086A00803AFF0080307F02031D3D2CFF303202A8
:10087A00031C402C412C4F2CFF3083120313B2006F
:10088A000030B3000030A7000030A6000030A500F9
:10089A000030A400831203133308803AFF0080302B
:1008AA007F02031D5A2C0130320203185D2C5E2C84
:1008BA006B2C83120313B201B3010030A70000307E
:1008CA00A6000030A5000030A400B1018312031372
:1008DA003208A8002808B800381C742C752C772C0C
:1008EA00A6177B2C7F30A8002808A6053808A80080
:1008FA000310280CA9002908A7003108A800280815
:10090A00A7041F2B0800831203133D088039C20075
:10091A004208C7003D08C2004207C3004308CD0091
:10092A00BC1F982C992C9A2C4D144D0803199E2CF7
:10093A009F2CAE2C4D0A031DA32CA42CAC2C0030EA
:10094A00BD000030BC000030BB000030BA00BC174C
:10095A00B62C0030BD000030BC000030BB000030B7
:10096A00BA0041088039C2004208C7064108C200DD
:10097A004207C3004308CC00C01FC42CC52CC62C98
:10098A004C144C080319CA2CCB2CDA2C4C0A031D24
:10099A00CF2CD02CD82C0030C1000030C000003041
:1009AA00BF000030BE00C017E22C0030C10000308A
:1009BA00C0000030BF000030BE004C080319E62C0E
:1009CA00E72CEC2C4D08031DEB2CEC2CF52C0030FD
:1009DA00BD000030BC000030BB000030BA00E82F78
:1009EA003A08C2004208F00040080A128A15862412
:1009FA000A128A11710883120313D3007008D200F5
:100A0A005208C200C301C401C5014508CB0044080D
:100A1A00CA004308C9004208C8005308C200C301FB
:100A2A00C401C5014508D1004408D0004308CF00DD
:100A3A004208CE003B08C2004208F0003F080A12F2
:100A4A008A1586240A128A11710883120313D300A5
:100A5A007008D2005208C200C301C401C50142088D
:100A6A00C807430803110318013E03193D2DC9079E
:100A7A00440803110318013E0319442DCA07450807
:100A8A0003110318013E03194B2DCB075308C2006B
:100A9A00C301C401C5014208CE0743080311031864
:100AAA00013E0319592DCF07440803110318013ECB
:100ABA000319602DD007450803110318013E0319D5
:100ACA00672DD1073C08C2004208F0003E080A120E
:100ADA008A1586240A128A11710883120313D30015
:100AEA007008D2005208C200C301C401C5014208FD
:100AFA00C807430803110318013E0319852DC907C6
:100B0A00440803110318013E03198C2DCA0745082E
:100B1A0003110318013E0319932DCB075308C20092
:100B2A00C301C401C5014208CE07430803110318D3
:100B3A00013E0319A12DCF07440803110318013EF2
:100B4A000319A82DD007450803110318013E0319FC
:100B5A00AF2DD1070830C2000310C80DC90DCA0D48
:100B6A00CB0DC20BB12D3B08C2004208F0003E0873
:100B7A000A128A1586240A128A117108831203132B
:100B8A00D3007008D2005208C2005308C300C4013F
:100B9A00C5014208C807430803110318013E031997
:100BAA00D72DC907440803110318013E0319DE2D86
:100BBA00CA07450803110318013E0319E52DCB079F
:100BCA003A08C2004208F0003F080A128A15862431
:100BDA000A128A11710883120313D3007008D20013
:100BEA005208C2005308C300C401C5014208C8071D
:100BFA00430803110318013E0319042EC9074408C8
:100C0A0003110318013E03190B2ECA0745080311E5
:100C1A000318013E0319122ECB070830C200031035
:100C2A00C80DC90DCA0DCB0DC20B142E3A08C2004D
:100C3A004208F0003E080A128A1586240A128A110E
:100C4A00710883120313D3007008D2005208C2003D
:100C5A005308C300C401C5014208C8074308031169
:100C6A000318013E03193A2EC90744080311031851
:100C7A00013E0319412ECA07450803110318013E14
:100C8A000319482ECB073B08C2004208F00040086F
:100C9A000A128A1586240A128A117108831203130A
:100CAA00D3007008D2005208C2005308C300C4011E
:100CBA00C5014208CE07430803110318013E031970
:100CCA00672ECF07440803110318013E03196E2E3D
:100CDA00D007450803110318013E0319752ED107E1
:100CEA003C08C2004208F0003F080A128A1586240E
:100CFA000A128A11710883120313D3007008D200F2
:100D0A005208C2005308C300C401C5014208CE07F5
:100D1A00430803110318013E0319942ECF07440810
:100D2A0003110318013E03199B2ED007450803112E
:100D3A000318013E0319A22ED1073C08C20042083B
:100D4A00F00040080A128A1586240A128A117108CC
:100D5A0083120313D3007008D2005208C20053084A
:100D6A00C300C401C50108300310C20DC30DC40D70
:100D7A00C50DFF3E031DB92E4208CE0743080311D5
:100D8A000318013E0319CA2ECF074408031103189A
:100D9A00013E0319D12ED007450803110318013E5D
:100DAA000319D82ED1074808C2004908C3004A08C7
:100DBA00C4004B08C50018300310C50CC40CC30C82
:100DCA00C20CFF3E031DE12E4208CE074308031161
:100DDA000318013E0319F22ECF0744080311031822
:100DEA00013E0319F92ED007450803110318013EE5
:100DFA000319002FD1070830C2000310C80DC90D0E
:100E0A00CA0DCB0DC20B022F4D084C07C200C301FD
:100E1A00C30D4208823ED20043080318013EFF3E3A
:100E2A00D300342F0130C2000310CE0DCF0DD00DE8
:100E3A00D10DC20B192FCB1F232F242F252F4E1470
:100E4A000130C2000310C80DC90DCA0DCB0DC20B6B
:100E5A00272FFF30D2070318D30AFF30D307D01F3A
:100E6A00372F382F172FCC01CB1F3C2F3D2F592F4F
:100E7A00FF304805C200FF304905C300FF304A056C
:100E8A00C4007F304B05C5004508440443044204AE
:100E9A000319502F512F542FCC01CC0A592F4E1C15
:100EAA00572F582F592F512F4C0803195D2F5E2F9A
:100EBA008F2F0130CE07003003180130CF070030E2
:100ECA0003180130D007003003180130D107511C34
:100EDA006F2F702F8F2F4E08C2004F08C300500883
:100EEA00C4005108C5000130C600450DC50CC40C2C
:100EFA00C30CC20CC60B7A2F4508D1004408D00097
:100F0A004308CF004208CE000130D2070318D30AA3
:100F1A000030D3075308803AFF0080307F02031D58
:100F2A00982FFF305202031C9B2F9C2FA72F7F3034
:100F3A0083120313D1008030D0000030CF0000307C
:100F4A00CE00DC2F831203135308803AFF0080304F
:100F5A007F02031DB22F013052020318B52FB62F9C
:100F6A00C22F003083120313D1000030D0000030AA
:100F7A00CF000030CE00C701DC2F831203135208C2
:100F8A00C2004208CD00FF30CE05FF30CF057F30CA
:100F9A00D0050030D1054D1CD32FD42FD52FD01713
:100FAA004D08C2000310420CC3004308D100470891
:100FBA00C2004208D1045108BD005008BC004F08C5
:100FCA00BB004E08BA0008008313E030FD000C3065
:100FDA00FE00E230FF00A03084000A128A1577244E
:100FEA000A128A11E601E701E801E901EA0183012F
:100FFA000A128A15C72E08308A000408840A820752
:10100A00003454346834653472346D346F346D345A
:10101A0065347434653472340034253430344334DE
:02102A00003490
:1018C200831603139F17F0309F05831203131F081B
:1018D2003F3980389F00831603131F1783120313A7
:1018E2001F1408007E088A007F0882000A128A15E7
:1018F20073240A128A158000840A04087D060319DB
:101902000034FF0A0319FE0A772CF800F401F501EE
:101912007008F200F3017208F6007308F700781CF1
:10192200932C942C9A2C7608F4070318F50A77085E
:10193200F50701300310F60DF70DFF3E031D9B2C3A
:101942000310F80C7808031DA72CA82C902C7508FE
:10195200F1007408F0000800FD0014307D02031C41
:10196200B32CB42CC12CE12C7D17D92C1430A0003F
:101972002008FD07D92C5430A0002008FD07D92CDF
:101982007C0883120313A000A1012108003A031965
:10199200CB2CD92C2008003A0319D92C013A03196F
:1019A200B52C033A0319B72C013A0319BC2CD92CD4
:1019B200FD17F5017D080A128A1566250A128A1595
:1019C20008000C34123412340C3400340034003465
:1019D2000034003404340E341F340E340434003422
:1019E200003404340434043404341F340E34043414
:1019F20000340A34153411340A3404340034003407
:101A020000340A341F341F340E34043400340034DA
:101A12000034003400340034003400340034003424
:101A22000034003400340034003400340034003414
:101A32000034003400340034003400340034003404
:101A42000034F501F601700871040319292D2A2DBD
:101A5200612DF701F70A382D01300310F00DF10D59
:101A6200FF3E031D2E2D0130F4007408F707F11F0D
:101A72003B2D3C2D2D2D01300310F50DF60DFF3EB3
:101A8200031D3D2D71087302031D492D700872025A
:101A9200031C4C2D4D2D542D7008F2027108031CAD
:101AA200F303F302751401300310F10CF00CFF3E46
:101AB200031D552D0130F702031D602D612D3C2DB4
:101AC2007608F1007508F0000800FA007A08F600BE
:101AD20004300310F60CFF3E031D6A2D7608F70052
:101AE2007708F8007A080F39F6007608F9007508C9
:101AF200031D7C2D7D2D812D831203138610842DD1
:101B0200831203138614852D831203130816080803
:101B1200F0397804F6007608FB007B088800912DE6
:101B2200922D0000831203130812972D982D0000A6
:101B32008312031308160808F0397904F6007608B0
:101B4200FB007B088800A52DA62D0000831203133D
:101B52000812AB2DAC2D00000A128A15B3250A1209
:101B62008A1508000F30F0007008831603138804EA
:101B72008312031306158610BE2D83120313081653
:101B8200C22D831203130808F0007008F4007408D1
:101B9200F00003300310F00DFF3E031DCB2D0310A8
:101BA200700DF1007108F400D62D83120313081290
:101BB200DA2DDB2D0000831203130816E02D8312A9
:101BC20003130808F0007008F3000F30F0007008EB
:101BD200F30574087304F0007008F4007408803987
:101BE200F0007008F200F52D831203130812F92D8C
:101BF200FA2D00007208031DFF2D002EBE2D831248
:101C020003130611F030F0007008831603138805E1
:101C12000800F601F31F0E2E0F2E162EF209F309FD
:101C2200F20A0319F30AF601F60AF11F192E1A2E07
:101C32001F2EF009F109F00A0319F10A7008710464
:101C42000319242E252E542EF501F50A332E0130C8
:101C52000310F00DF10DFF3E031D292E0130F4009B
:101C62007408F507F11F362E372E282E71087302DD
:101C7200031D3D2E70087202031C402E412E472E7A
:101C82007008F2027108031CF303F302013003101F
:101C9200F10CF00CFF3E031D482E0130F502031D2E
:101CA200532E542E372E76080319582E592E5E2E97
:101CB200F209F309F20A0319F30A7308F100720830
:101CC200F000080083120313A000C330FD00CD30E2
:101CD200FC00FC0B6A2EFD0B6A2EF030FC007C0827
:101CE200831603138805081286100611F030FC00D3
:101CF2007C08831203138805081206118610812EB0
:101D02008312031308168814862E872E000083126E
:101D1200031308128C2E8D2E00000A128A15B32589
:101D22000A128A15F50128300A128A1566250A1246
:101D32008A15F5018312031320080C380A128A153A
:101D420066250A128A15F50140300A128A1566259F
:101D52000A128A1583120313A101F501F50A21085B
:101D6200A03E8400831300080A128A1566250A120F
:101D72008A150130FC007C0883120313A10740304E
:101D82002102031CC52EC62EAE2E080000300A12F8
:101D92008A1563260A128A150A128A1561240A1202
:101DA2008A15F50101300A128A1566250A128A156A
:101DB20001300A128A1593270A128A150A128A1109
:101DC200A8200A128A15831203135708E500560841
:101DD200E4005508E3005408E200FC01FC0A00306C
:101DE2000A128A15AD240A128A1583120313650892
:101DF200F3006408F2006308F1006208F0000A12BE
:101E02008A112E200A128A15710883120313A10067
:101E12007008A0000330DF005F08A2000A128A11D6
:101E220047210A128A150D300A128A1593270A12BF
:101E32008A15063083120313E1001330E000AD303F
:101E4200DF00DF0B222FE00B222FE10B222FDF2EF0
:101E52000A128A110028F601F11F302F312F382F74
:101E6200F009F109F00A0319F10AF601F60AF31F63
:101E72003B2F3C2F452FF209F309F20A0319F30A0B
:101E82000130F4007408F606F701F80170087104D5
:101E920003194C2F4D2F842FF501F50A5B2F0130CA
:101EA2000310F00DF10DFF3E031D512F0130F40020
:101EB2007408F507F11F5E2F5F2F502F01300310BA
:101EC200F70DF80DFF3E031D602F71087302031D0D
:101ED2006C2F70087202031C6F2F702F772F7008FF
:101EE200F2027108031CF303F302771401300310AA
:101EF200F10CF00CFF3E031D782F0130F502031D9B
:101F0200832F842F5F2F76080319882F892F8E2F16
:101F1200F709F809F70A0319F80A7808F1007708AF
:101F2200F000080083120313A100F32F210884009C
:101F32000A128A1500200A128A15253A031DA22FB9
:101F4200A32FDF2F0130FC007C08A10721088400A9
:101F52000A128A1500200A128A15D03EFC007C085B
:101F6200A000A01BB52FB62FC62F2008803A783EBE
:101F72000318BC2FBD2FC62FF501F50A20080A123F
:101F82008A1566250A128A15ED2FF501F50A253004
:101F92000A128A1566250A128A15F501F50A8312B4
:101FA2000313210884000A128A1500200A128A15D6
:101FB2000A128A1566250A128A15ED2FF501F50A0D
:101FC200210884000A128A1500200A128A150A12B0
:101FD2008A1566250A128A150130FC007C088312D4
:101FE2000313A107210884000A128A1500200A128D
:0E1FF2008A15003A031DFE2FFF2F972F0800BF
:08400000FF3FFF3FFF3FFF3FC0
:02400E00FA3F77
:00000001FF
